{
    "contractName": "Counter",
    "abi": [
        {
            "inputs": [],
            "stateMutability": "nonpayable",
            "type": "constructor"
        },
        {
            "inputs": [],
            "name": "count",
            "outputs": [
                {
                    "internalType": "uint256",
                    "name": "",
                    "type": "uint256"
                }
            ],
            "stateMutability": "view",
            "type": "function"
        },
        {
            "inputs": [],
            "name": "decrement",
            "outputs": [],
            "stateMutability": "nonpayable",
            "type": "function"
        },
        {
            "inputs": [],
            "name": "getCount",
            "outputs": [
                {
                    "internalType": "uint256",
                    "name": "",
                    "type": "uint256"
                }
            ],
            "stateMutability": "view",
            "type": "function"
        },
        {
            "inputs": [],
            "name": "increment",
            "outputs": [],
            "stateMutability": "nonpayable",
            "type": "function"
        }
    ],
    "bytecode": "60806040526000805534801561001457600080fd5b5060008055610116806100286000396000f3fe6080604052348015600f57600080fd5b506004361060465760003560e01c806306661abd14604b5780632baeceb7146065578063a87d942c14606d578063d09de08a146074575b600080fd5b605360005481565b60405190815260200160405180910390f35b606b607a565b005b6000546053565b606b6091565b6001600080828254608a919060b7565b9091555050565b6001600080828254608a919060cb565b634e487b7160e01b600052601160045260246000fd5b60008282101560c65760c660a1565b500390565b6000821982111560db5760db60a1565b50019056fea2646970667358221220a91568af15a44237dcf15185942fc64069943a03b3be0d0efe911ea9c7cba8a864736f6c634300080b0033",
    "sourcePath": "/home/pradumna/coding/GitHub/Personal/Solidity/Contract/Contract.sol",
    "compiler": {
        "name": "solc",
        "version": "0.8.11+commit.d7f03943"
    },
    "functionHashes": {
        "count()": "06661abd",
        "decrement()": "2baeceb7",
        "getCount()": "a87d942c",
        "increment()": "d09de08a"
    },
    "gasEstimates": {
        "creation": {
            "codeDepositCost": "55600",
            "executionCost": "10117",
            "totalCost": "65717"
        },
        "external": {
            "count()": "2261",
            "decrement()": "24436",
            "getCount()": "2302",
            "increment()": "24483"
        }
    }
}